:03000000020800F3
:0C080000787FE4F6D8FD75810E020847F1
:1009C9003F065B4F666D7D077F6F777C395E797176
:0309F800010E00ED
:060936007E007D007C0044
:08093C008F0C8E0B8D0A8C0953
:100944007F177E00AB0CAA0BA90AA809E4FCFD12D0
:10095400088C8F0C8E0B8D0A8C09780974FF120891
:07096400DDEC4D4E4F70F376
:01096B002269
:10099F00E4F508C3E508940A74809480500BB2956F
:0909AF007F0A120936050880EAEE
:0109B800221C
:0309FC00C295227F
:10096C0075A07FE4F50DC3E50D9408748094805058
:10097C0021E50D9009C993F5807F64120936E4F5E1
:10098C0080AFA07801EF08800103D8FDF5A0050D1C
:02099C0080D405
:01099E002236
:0709F100D288D2A8D2AF2288
:030003000208FBF5
:1008FB00C0E0C0F0C083C082C0D075D000C000C0C3
:10090B0001C002C003C004C005C006C00712099F86
:10091B00D007D006D005D004D003D002D001D00030
:0B092B00D0D0D082D083D0F0D0E032DA
:1009B900758901758C3C758AB0D28CD2A9D2AF22C7
:03000B000209E8FF
:0909E800758C3C758AB0050E32D5
:0F09D9001209B9E50E641470FAF50EB29080F4AD
:10080C000209D9E493A3F8E493A34003F68001F220
:10081C0008DFF48029E493A3F85407240CC8C333ED
:10082C00C4540F4420C8834004F456800146F6DFBC
:10083C00E4800B01020408102040809009F8E47E4B
:10084C00019360BCA3FF543F30E509541FFEE493B1
:10085C00A360010ECF54C025E060A840B8E493A378
:10086C00FAE493A3F8E493A3C8C582C8CAC583CAA3
:10087C00F0A3C8C582C8CAC583CADFE9DEE780BE5B
:0109FB0000FB
:10088C00E88FF0A4CC8BF0A42CFCE98EF0A42CFC0B
:10089C008AF0EDA42CFCEA8EF0A4CDA8F08BF0A489
:1008AC002DCC3825F0FDE98FF0A42CCD35F0FCEBE8
:1008BC008EF0A4FEA9F0EB8FF0A4CFC5F02ECD39AD
:0F08CC00FEE43CFCEAA42DCE35F0FDE43CFC221A
:1008DB007401FF3395E0FEFDFC080808E6CF2FF608
:1008EB0018E6CE3EF618E6CD3DF618E6CC3CF622E1
:00000001FF
