:03000000020800F3
:0C080000787FE4F6D8FD758108020847F7
:03091700010800D4
:1008BB00EFFD7C007F177E001208ECAA06AB07EB5E
:0908CB001BAE0270011A4E70F61A
:0108D4002201
:1008D500E4F9E9C3940A74809480500AB2957F0ABA
:0608E5001208BB0980ECC3
:0108EB0022EA
:03091B00C2952260
:1008FE00758901758C3C758AB0D28CD2A9D2AF2283
:03000B0002090ED9
:09090E00758C3C758AB0050832B5
:10088C007F01E4FEFD1208FE8F80E5086402700D06
:10089C00F5080EEF6005FDE4FF8002AF05EE641471
:0F08AC0070E6FE7801EF08800123D8FDFF80D9A8
:10080C0002088CE493A3F8E493A34003F68001F26E
:10081C0008DFF48029E493A3F85407240CC8C333ED
:10082C00C4540F4420C8834004F456800146F6DFBC
:10083C00E4800B0102040810204080900917E47E2C
:10084C00019360BCA3FF543F30E509541FFEE493B1
:10085C00A360010ECF54C025E060A840B8E493A378
:10086C00FAE493A3F8E493A3C8C582C8CAC583CAA3
:10087C00F0A3C8C582C8CAC583CADFE9DEE780BE5B
:01091A0000DC
:1008EC00EF8DF0A4A8F0CF8CF0A428CE8DF0A42E20
:0208FC00FE22DA
:00000001FF
